:020000040800F2
:103200008806002089330008A93C0008AB3C000870
:10321000AF3C0008B33C0008B73C000800000000C9
:10322000000000000000000000000000BB3C00089F
:10323000BD3C000800000000BF3C0008C13C000885
:10324000A3330008C33C0008A3330008A3330008DD
:10325000A3330008A3330008A3330008A3330008F6
:10326000A3330008A3330008A3330008A3330008E6
:10327000A3330008A3330008A3330008A3330008D6
:10328000A3330008A3330008A3330008A3330008C6
:10329000A3330008A3330008A3330008A3330008B6
:1032A000A3330008A3330008A3330008A3330008A6
:1032B000A3330008A3330008A3330008A333000896
:1032C000A3330008A3330008A3330008A333000886
:1032D000A3330008A3330008A3330008A333000876
:1032E000A3330008A3330008A333000800F002F85A
:1032F00000F03AF80AA090E8000C82448344AAF156
:103300000107DA4501D100F02FF8AFF2090EBAE853
:103310000F0013F0010F18BFFB1A43F00103184709
:10332000B40B0000D40B0000103A24BF78C878C159
:10333000FAD8520724BF30C830C144BF04680C60BB
:10334000704700000023002400250026103A28BF03
:1033500078C1FBD8520728BF30C148BF0B60704707
:103360001FB51FBD10B510BD00F07DFD1146FFF764
:10337000F7FF00F0CAFC00F09BFD03B4FFF7F2FF7B
:1033800003BC00F09FFD0000094880470948004742
:10339000FEE7FEE7FEE7FEE7FEE7FEE7FEE7FEE705
:1033A000FEE7FEE704480549054A064B7047000062
:1033B000A7340008ED3200088800002088060020AD
:1033C00088020020880200200CB5002001900090A7
:1033D0006C48006840F480306A49086000BF694862
:1033E000006800F4003000900198401C01900098A3
:1033F00020B90198A0F57F41FF39F0D161480068FC
:1034000010F4003F02D00120009001E00020009065
:103410000098012842D15C48006840F010005A49E9
:1034200008600846006820F003000860084600684D
:1034300040F002000860534840685249486008461E
:10344000406848600846406840F48060486008462C
:10345000406820F47C1048600846406840F4E8105A
:1034600048600846006840F08070086000BF45482A
:10347000006810F0007FFAD04248406820F0030056
:10348000404948600846406840F00200486000BF7C
:103490003C48406800F00C000828F9D10CBD10B57C
:1034A000FFF792FF10BD10B53648006840F00100EC
:1034B000344908600846406834490840314948604A
:1034C00008460068324908402E49086008460068EE
:1034D00020F4802008600846406820F4FE00486020
:1034E0004FF41F008860FFF7DAFF4FF000602949B2
:1034F000086010BD10B5002100200022214B5B6840
:1035000003F00C0121B1042906D0082928D107E0D5
:10351000214B224C236027E01F4B204C236023E0EB
:10352000184B5B6803F47010164B5B6803F4803231
:10353000022303EB904022B9194B4343174C2360FD
:103540000DE0104B5B6813F4003F04D0144B434371
:10355000124C236003E0104B4343104C236003E004
:103560000D4B0E4C236000BF00BF064B5B68C3F3DE
:1035700003130C4CE15C094B1B68CB40074C2360E8
:1035800010BD000000100240002002400000FFF8C3
:10359000FFFFF6FE08ED00E000127A0000000020B8
:1035A00000093D000400002010B50446CA488442CA
:1035B00008D10121042000F028FB0021042000F0A4
:1035C00024FB46E0C548844208D10121082000F0D0
:1035D0001CFB0021082000F018FB3AE0C0488442A0
:1035E00008D10121102000F010FB0021102000F074
:1035F0000CFB2EE0BB48844208D10121202000F0C2
:1036000004FB0021202000F000FB22E0B6488442A9
:1036100008D10121402000F0F8FA0021402000F0FC
:10362000F4FA16E0B148844208D10121802000F06C
:10363000ECFA0021802000F0E8FA0AE0AC4884426D
:1036400007D10121801500F0E0FA0021A01500F05B
:10365000DCFA10BD10B50121084600F0D6FA0021B1
:10366000012000F0D2FA10BD2DE9F04102460025FC
:103670000026002000230024002791F803C00CF04E
:103680000F0591F803C01CF0100F03D091F802C091
:103690004CEA050591F800C0BCF1000F31D0146868
:1036A00000202BE04FF0010C0CFA00F3B1F800C041
:1036B0000CEA03069E4220D183004FF00F0C0CFA57
:1036C00003F7BC4305FA03FC4CEA040491F803C079
:1036D000BCF1280F06D14FF0010C0CFA00FCC2F827
:1036E00014C00AE091F803C0BCF1480F05D14FF0B7
:1036F000010C0CFA00FCC2F810C0401C0828D1D301
:103700001460B1F800C0BCF1FF0F34DD5468002034
:103710002EE000F1080C4FF0010808FA0CF3B1F8A4
:1037200000C00CEA03069E4221D183004FF00F0C2B
:103730000CFA03F7BC4305FA03FC4CEA040491F8C5
:1037400003C0BCF1280F05D100F1080C08FA0CF8F1
:10375000C2F8148091F803C0BCF1480F07D100F102
:10376000080C4FF0010808FA0CF8C2F81080401C51
:103770000828CED35460BDE8F0814FF6FF71018078
:10378000022181700421C1707047024600209368B5
:103790000B4201D0012000E00020704701468868FC
:1037A00080B2704702460020D3680B4201D001204E
:1037B00000E0002070470146C86880B27047016190
:1037C0007047416170470AB1016100E04161704793
:1037D000C16070474FF480320A4382618161826127
:1037E00082698269704702460020424B18684FF692
:1037F0008073184040EA021008433E4B186070473F
:103800003D49C8617047F0B50A46002300240021F5
:10381000002500F00046B6F1004F02D1354EF169A7
:1038200001E0344E7168C0F3034583B200F44016E2
:10383000B6F5401F08D121F070612E4E766826F053
:1038400070662C4F7E6012E000F48016B6F5801F83
:1038500006D1032606FA05F4A14341F0706106E0A3
:10386000460D360103FA06F6B14341F0706122B10C
:10387000460D360103FA06F6314300F00046B6F174
:10388000004F02D11B4EF16101E01A4E7160F0BD94
:1038900030B500228B071C0F0F2303FA04F2154BDF
:1038A00008338C1053F824309343124C08348D1095
:1038B00044F8253023468C1053F824308C07240F0D
:1038C00000FA04F423430B4C08348D1044F82530DF
:1038D00030BD0A490860704700080140000C0140F3
:1038E000001001400014014000180140001C01407C
:1038F000002001400000014000002042DC00204286
:10390000DE48006840F00100DC4908600846406875
:10391000DB490840D949486008460068D949084051
:10392000D64908600846006820F4802008600846F0
:10393000406820F4FE0048604FF41F008860704724
:10394000CE49096821F48031CC4A116011460968DA
:1039500021F480211160B0F5803F03D0B0F5802FB5
:103960000ED106E0C549096841F48031C34A1160AF
:1039700007E0C249096841F4A021C04A116000E093
:1039800000BF00BF704710B5014600220023002091
:103990004A11012A02D1B94C236806E0022A02D159
:1039A000B64C236A01E0B54C636A01F01F020124A2
:1039B00094401C4201D0012000E0002010BD38B529
:1039C000002000900024002500BF3120FFF7DBFF1E
:1039D00005460098401C00900098A0F57F41FF39F3
:1039E00001D0002DF1D03120FFF7CDFF08B1012427
:1039F00000E00024204638BD014600209F4A1068A0
:103A000020F0F80040EAC100106070479E4908604D
:103A1000704702460020994B586820F47C1042EA17
:103A200001031843954B58607047974908667047E3
:103A300001460020914A506820F00300084350607E
:103A400070478E48406800F00C0070470146002027
:103A50008A4A506820F0F0000843506070470146E1
:103A60000020864A506820F4E060084350607047A8
:103A700001460020814A506820F4605040EAC100AD
:103A80005060704729B17D4A527A02437B4B5A728B
:103A900004E07A4A527A8243784B5A7270477B49E3
:103AA0000860704701460020744A506820F4404086
:103AB0000843506070470021754A11706F4A82F8C0
:103AC0002010012802D0042808D103E00121704A07
:103AD000117004E005216E4A117000E000BF00BFC4
:103AE00070476C49086070476449096A0143634A3A
:103AF00011627047674944390860704730B500214A
:103B00000022002400235D4D6D6805F00C0121B1F9
:103B1000042905D0082923D105E05F4D056022E086
:103B20005D4D05601FE0554D6D6805F47012534DF5
:103B30006D6805F48034022505EB92421CB9574D9F
:103B4000554305600BE04D4D6D6815F4003F03D003
:103B5000524D5543056002E04F4D5543056002E06C
:103B60004D4D056000BF00BF444D6D6805F0F0018C
:103B700009094B4D6B5C0568DD4045603F4D6D6844
:103B800005F4E061090A464D6B5C4568DD408560DF
:103B90003A4D6D6805F46051C90A414D6B5C45684A
:103BA000DD40C560354D6D6805F44041890B3D4DE4
:103BB0006B5CC568B5FBF3F5056130BD29B12F4AD3
:103BC000526902432D4B5A6104E02C4A52698243E8
:103BD0002A4B5A61704729B1284A92690243274B00
:103BE0009A6104E0254A92698243244B9A617047A6
:103BF00029B1224AD2690243204BDA6104E01F4A0C
:103C0000D26982431D4BDA61704729B11B4AD268E1
:103C100002431A4BDA6004E0184AD2688243174B19
:103C2000DA60704729B1154A12690243134B1A61D1
:103C300004E0124A12698243104B1A617047154919
:103C40004039086070471049C86470470B49C87113
:103C500070470A48406A40F08070084948627047DF
:103C600001460020054A92680A4201D0012000E086
:103C70000020704701498872704700000010024020
:103C80000000FFF8FFFFF6FE00004242D80042426B
:103C9000201002408004424200127A0000093D00D8
:103CA0001400002024000020704700BFFEE700BF82
:103CB000FEE700BFFEE700BFFEE7704770477047B2
:103CC0007047704708B501218020FFF784FF0F205F
:103CD000ADF8000010208DF8030003208DF80200DD
:103CE00069460448FFF7C0FC0F210248FFF769FD51
:103CF00008BD0000001C014001B502E00098401E14
:103D0000009000980028F9D108BD4FF448514FF0B9
:103D1000006000F06FF8FFF7D5FF2FE00121184891
:103D2000FFF74DFD6FF07F40FFF7E6FF01211448DC
:103D3000FFF747FD02211248FFF741FD6FF07F407A
:103D4000FFF7DAFF02210E48FFF73BFD04210C4884
:103D5000FFF735FD6FF07F40FFF7CEFF04210848E5
:103D6000FFF72FFD08210648FFF729FD6FF07F4080
:103D7000FFF7C2FF08210248FFF723FDCEE700004E
:103D8000001C014031490143314A1160704770B550
:103D9000002100230F22C4780CB32D4C246804F4B6
:103DA000E064C4F5E064210AC1F10403CA40447828
:103DB00004FA03F18478144021430901254C067864
:103DC000A155047804F01F050124AC4005786D115D
:103DD0004FF0E02606EB8505C5F8004109E00478C0
:103DE00004F01F050124AC401B4D0678761145F800
:103DF000264070BD194A0A400243154B1B1F1A602A
:103E0000704739B1124A121D12680243104B1B1D34
:103E10001A6006E00E4A121D126882430C4B1B1DED
:103E20001A607047042808D14FF0E021096941F079
:103E300004014FF0E022116107E04FF0E021096931
:103E400021F004014FF0E022116170470000FA05F3
:103E50000CED00E000E400E080E100E080FFFF1FE7
:103E6000704770477047754600F028F8AE46050069
:103E70006946534620F00700854618B020B5FFF785
:103E800091FABDE820404FF000064FF000074FF0D8
:103E900000084FF0000B21F00701AC46ACE8C00968
:103EA000ACE8C009ACE8C009ACE8C0098D46704771
:103EB0000446AFF300802046FFF75FFA00487047E2
:103EC0002800002001491820ABBEFEE726000200B2
:103ED00070470000F43E00080000002028000000A9
:103EE000283300081C3F000828000020600600005E
:103EF0004433000800A24A04000000000000000053
:103F0000010203040607080900000000010203047F
:0C3F100001020304060708090204060869
:04000005080032EDD0
:00000001FF
