:020000040800F2
:1000000000000120710800082523000831230008A2
:10001000A5080008A5080008A508000800000000C1
:10002000000000000000000000000000392300086C
:10003000A50800080000000045230008512300081F
:10004000A5080008A5080008A5080008A5080008DC
:10005000A5080008A5080008A5080008A5080008CC
:10006000A5080008A5080008A5080008A5080008BC
:10007000A5080008A5080008A5080008A5080008AC
:10008000A5080008A5080008A5080008A50800089C
:1000900085230008A5080008A5080008A508000891
:1000A000A5080008A5080008A5080008A50800087C
:1000B000A5080008A5080008A5080008A50800086C
:1000C000A5080008A5080008A5080008A50800085C
:1000D000A5080008A5080008A5080008A50800084C
:1000E00091230008A5080008D1230008A5080008EE
:1000F000A5080008A5080008A5080008A50800082C
:10010000A5080008A5080008A5080008A50800081B
:10011000A5080008A5080008A5080008A50800080B
:10012000A5080008A5080008A5080008A5080008FB
:1001300000000000000000000000000000000000BF
:1001400000000000000000000000000000000000AF
:10015000000000000000000000000000000000009F
:10016000000000000000000000000000000000008F
:10017000000000000000000000000000000000007F
:10018000000000000000000000000000000000006F
:10019000000000000000000000000000000000005F
:1001A000000000000000000000000000000000004F
:1001B000000000000000000000000000000000003F
:1001C000000000000000000000000000000000002F
:1001D0000000000000000000000000005FF8E0F1F7
:1001E00080B483B000AF064B7B6000BF7B685A1EB3
:1001F0007A60002BFAD100BF0C37BD4680BC704737
:100200008096980080B582B000AF0121182001F0DF
:10021000E7FA0121012001F0E3FA0121124800F080
:10022000B5FE8023BB800323BB711023FB713B1DF4
:1002300019460E4800F0E6FC1023BB800323BB7177
:100240001023FB713B1D1946094800F0DBFC80219F
:10025000064800F0F3FD1021054800F0EFFD00BF57
:100260000837BD4680BD00BF0002300000100140CD
:10027000000C014080B500AF0C4B1B68002B04D074
:1002800010210B4800F0E8FD03E01021084800F0C1
:10029000D5FD064B1B68002B0CBF01230023DBB2EE
:1002A0001A46024B1A6000BF80BD00BF300100201B
:1002B000000C014080B582B000AF4123FB71FFF715
:1002C000A1FF0D4800F068F901F0F6FF10210B487E
:1002D00000F0C2FDFB795A2B01D94123FB71FB7958
:1002E0005A1CFA711946064800F056F9FFF7C2FF8A
:1002F000FFF776FFEEE700BFF0730008000C014047
:10030000F873000880B586B000AF0121042001F029
:1003100067FA01214FF4804001F062FA4FF4007354
:10032000BB821823FB750323BB7507F11403194621
:10033000154800F067FC4FF48063BB820423FB7513
:1003400007F114031946104800F05CFC0F4801F057
:10035000BBFB4FF4E1337B6000233B8100237B81B7
:100360000023BB8100233B820C23FB813B1D1946EC
:10037000064801F005FC0121044801F0E1FC00BF42
:100380001837BD4680BD00BF00080140003801405D
:1003900080B582B000AF0346FB71FB799BB2194672
:1003A000074801F009FD00BF4021054801F09AFE11
:1003B0000346002BF8D000BF0837BD4680BD00BF04
:1003C0000038014080B582B000AF78607B68002BB8
:1003D0001CD07B680F4A82FB03129210DB17D31AE2
:1003E0001846FFF7EFFF7A680A4B83FB0213991058
:1003F000D317C91A0B469B000B445B00D11ACBB232
:100400003033DBB21846FFF7C3FF00E000BF083708
:10041000BD4680BD6766666690B585B000AFC7E92A
:1004200000010023FB600023BB60D7E9000106F058
:10043000B7FF0346BB60B868FFF7C4FF2E20FFF785
:10044000A7FFB86806F034FD03460C461A4623465B
:10045000D7E9000106F0DEFB03460C46C7E900348D
:100460000BA3D3E90023D7E9000106F087FD03467B
:100470000C461846214606F093FF0346BB60B86859
:10048000FFF7A0FF00BF1437BD4690BDAFF300805B
:100490000000000080842E4180B582B000AF7860FB
:1004A00006E07B685A1C7A601B781846FFF770FFDD
:1004B0007B681B78002BF4D100BF0837BD4680BD98
:1004C00080B582B000AF78607B68002B03D10E4806
:1004D000FFF7E2FF15E07B68DA0F13445B10184664
:1004E000FFF7EEFF7A68094B1340002B03DA013B5C
:1004F00063F001030133DBB23033DBB21846FFF7A0
:1005000047FF0837BD4680BD047400080100008025
:1005100080B582B000AF78607B68002B03D11C48A7
:10052000FFF7BAFF31E07B68002B00DA0F331B11B5
:100530001846FFF7EDFF7A68164B1340002B03DADD
:10054000013B63F00F030133092B0FDC7A68114B79
:100550001340002B03DA013B63F00F030133DBB2DE
:100560003033DBB21846FFF713FF0EE07A68094B11
:100570001340002B03DA013B63F00F030133DBB2BE
:100580005733DBB21846FFF703FF0837BD4680BD7F
:10059000087400080F0000800FB490B589B000AF58
:1005A0004FF000034FF00004C7E904340023FB6060
:1005B0000023FB72934B1B78002B04D1914B01223B
:1005C0001A70FFF79FFE07F134033B603B6BFB6142
:1005D0000CE1FB691B78252B40F0FA80FB690133A5
:1005E000FB61FB691B78253B532B00F2EC8001A2D9
:1005F00052F823F0BF070008C7070008C707000824
:10060000C7070008C7070008C7070008C707000892
:10061000C7070008C7070008C7070008C707000882
:10062000C7070008C7070008C7070008C707000872
:10063000C7070008C7070008C7070008C707000862
:10064000C7070008C7070008C7070008C707000852
:10065000C7070008C7070008C7070008C707000842
:10066000C7070008C70700089B070008C70700085E
:10067000C7070008C7070008C7070008C707000822
:10068000C7070008C7070008C7070008C707000812
:10069000C7070008C7070008C7070008C707000802
:1006A000C7070008C7070008C7070008C7070008F2
:1006B000C7070008C7070008C7070008C7070008E2
:1006C000AD070008C7070008C7070008C7070008EC
:1006D000C7070008C7070008C7070008C7070008C2
:1006E000C7070008C70700089B0700084507000860
:1006F00059070008C70700086B070008C70700086C
:10070000C707000859070008C7070008C7070008FF
:10071000C7070008C7070008C7070008C707000881
:10072000C7070008C7070008C707000889070008AF
:10073000C7070008C7070008C7070008C707000861
:10074000AD0700083B681A1D3A601B68FB72FB7A14
:100750001846FFF71DFE37E03B681A1D3A601B681C
:10076000FB60F868FFF72EFE2EE03B68073323F0AE
:10077000070303F108023A6018CBC7E90434D7E94C
:100780000401FFF749FE1FE03B681A1D3A601B6831
:100790007B607868FFF780FE16E03B681A1D3A60C0
:1007A0001B68FB60F868FFF78BFE0DE03B681A1DC5
:1007B0003A601B68FB60F868FFF7AAFE04E025209A
:1007C000FFF7E6FD00E000BFFB690133FB610DE0D0
:1007D000FB691B780A2B02D10D20FFF7D9FDFB69BD
:1007E0005A1CFA611B781846FFF7D2FDFB691B788B
:1007F000002B7FF4EEAE00BF2437BD46BDE890402D
:1008000004B070473401002080B483B000AF134BB4
:100810007B60134B3B607A683B689A420CD007E0E0
:100820003B681A1D3A607A68111D796012681A6077
:100830003B680C4A9342F3D30B4B3B6004E03B68AC
:100840001A1D3A6000221A603B68084A9342F6D3A8
:1008500000BF0C37BD4680BC704700BF6075000804
:100860000000002030010020300100201002002094
:10087000684620F007018D4689B500AFFFF7C4FF39
:10088000064A074B23F0684323F07F0343F00063DD
:10089000936000F00FF8FFF70DFDFEE700ED00E0BC
:1008A0000000000080B500AF0148FFF775FEFEE7CD
:1008B0001074000880B500AF144A144B1B6843F055
:1008C000010313601149114B5A68114B13404B60DF
:1008D0000E4A0E4B1B6823F0847323F4803313609D
:1008E0000A4A0A4B1B6823F480231360074A074B0C
:1008F0005B6823F00F6323F470235360034B4FF4C2
:100900001F029A6000F08CF800BF80BD001002400A
:100910000000FFE880B487B000AF00237B610023B4
:100920003B610023FB600023BB6000237B60354BF1
:100930005B6803F00C037B617B69042B07D0082BF9
:1009400009D0002B40D1304B304A1A6040E02E4B8A
:100950002F4A1A603CE02B4B5B6803F470133B6139
:10096000284B5B6803F00063FB60FB68DA0E1346FC
:100970001B019B1AFB603B699A0CFB681344023312
:100980003B61204B5B6803F48033BB60BB68002B8A
:1009900006D13B691F4A02FB03F31B4A136017E0B1
:1009A000184B5B6803F40033002B06D03B691A4AEE
:1009B00002FB03F3144A13600AE03B69144A02FB8A
:1009C00003F3114A136003E00F4B104A1A6000BF93
:1009D0000C4B5B6803F0F0037B617B691B097B6157
:1009E0000E4A7B6913441B78DBB27B60064B1A68A6
:1009F0007B6822FA03F3044A136000BF1C37BD462C
:100A000080BC7047001002400000002000127A00F5
:100A1000001BB70000093D00808D5B000400002032
:100A200080B500AF00F002F800BF80BD80B483B095
:100A300000AF00237B6000233B60324A314B1B68D0
:100A400043F4803313602F4B1B6803F400333B6087
:100A50007B6801337B603B68002B04D17B684FF6D9
:100A6000FF729342EFD1274B1B6803F40033002B36
:100A700002D001233B6001E000233B603B68012B77
:100A80003BD1204A1F4B5B6853601E4A1D4B5B687D
:100A900053601C4A1B4B5B6843F480635360194AE4
:100AA000184B5B6823F0036323F470235360154AEB
:100AB000144B5B6843F488135360124A114B1B6854
:100AC00043F08073136000BF0E4B1B6803F000738C
:100AD000002BF9D00B4A0B4B5B6823F003035360E8
:100AE000084A084B5B6843F00203536000BF054BA4
:100AF0005B6803F00C03082BF9D100BF0C37BD462F
:100B000080BC70470010024080B582B000AF7860B2
:100B10007B682F4A934208D10121042000F09CFEFB
:100B20000021042000F098FE4EE07B68294A9342A1
:100B300008D10121082000F08FFE0021082000F0DC
:100B40008BFE41E07B68244A934208D101211020AA
:100B500000F082FE0021102000F07EFE34E07B6871
:100B60001E4A934208D10121202000F075FE002189
:100B7000202000F071FE27E07B68194A934208D1DB
:100B80000121402000F068FE0021402000F064FEBA
:100B90001AE07B68134A934208D10121802000F0BB
:100BA0005BFE0021802000F057FE0DE07B680E4ABE
:100BB000934209D101214FF4807000F04DFE0021D5
:100BC0004FF4807000F048FE00BF0837BD4680BD7E
:100BD00000080140000C01400010014000140140D9
:100BE00000180140001C01400020014080B500AF0A
:100BF0000121012000F030FE0021012000F02CFE38
:100C000000BF80BD80B489B000AF78603960002338
:100C1000FB6100233B610023BB610023FB600023D9
:100C20007B610023BB603B68DB7803F00F03FB6153
:100C30003B68DB7803F01003002B05D03B689B7802
:100C40001A46FB691343FB613B681B88DBB2002B30
:100C500044D07B681B687B610023BB6138E00122C4
:100C6000BB6902FA03F3FB603B681B881A46FB680A
:100C700013403B613A69FB689A4226D1BB699B00ED
:100C8000FB600F22FB6802FA03F3BB60BB68DB4327
:100C90007A6913407B61FA69FB6802FA03F37A69A7
:100CA00013437B613B68DB78282B05D10122BB69AC
:100CB0009A407B685A6108E03B68DB78482B04D196
:100CC0000122BB699A407B681A61BB690133BB6131
:100CD000BB69072BC3D97B687A691A603B681B889C
:100CE000FF2B46D97B685B687B610023BB613AE0E0
:100CF000BB690833012202FA03F3FB603B681B88DF
:100D00001A46FB6813403B613A69FB689A4227D157
:100D1000BB699B00FB600F22FB6802FA03F3BB6018
:100D2000BB68DB437A6913407B61FA69FB6802FAAE
:100D300003F37A6913437B613B68DB78282B05D189
:100D4000BB69083301229A407B685A613B68DB78B3
:100D5000482B05D1BB69083301229A407B681A6190
:100D6000BB690133BB61BB69072BC1D97B687A6959
:100D70005A6000BF2437BD4680BC704780B483B042
:100D800000AF78607B684FF6FF721A807B680222A2
:100D90009A707B680422DA7000BF0C37BD4680BCB5
:100DA000704700BF80B485B000AF78600B467B8091
:100DB0000023FB737B689A687B881340002B02D06A
:100DC0000123FB7301E00023FB73FB7B1846143700
:100DD000BD4680BC704700BF80B483B000AF786070
:100DE0007B689B689BB218460C37BD4680BC704739
:100DF00080B485B000AF78600B467B800023FB7326
:100E00007B68DA687B881340002B02D00123FB73D8
:100E100001E00023FB73FB7B18461437BD4680BC02
:100E2000704700BF80B483B000AF78607B68DB6838
:100E30009BB218460C37BD4680BC704780B483B067
:100E400000AF78600B467B807A887B681A6100BFB0
:100E50000C37BD4680BC704780B483B000AF78606B
:100E60000B467B807A887B685A6100BF0C37BD4691
:100E700080BC704780B483B000AF78600B467B8045
:100E800013467B707B78002B03D07A887B681A61CD
:100E900002E07A887B685A6100BF0C37BD4680BC8F
:100EA000704700BF80B483B000AF78600B467B8092
:100EB0007A887B68DA6000BF0C37BD4680BC70471B
:100EC00080B485B000AF78600B467B804FF48033F0
:100ED000FB607B88FA681343FB607B68FA689A6161
:100EE0007A887B689A617B68FA689A617B689B69FB
:100EF000FB607B689B69FB6000BF1437BD4680BC0C
:100F0000704700BF80B485B000AF03460A46FB714E
:100F10001346BB710023FB600C4B1B68FB60FA6837
:100F20004FF680731340FB60FB791B01FA68134393
:100F3000FB60BB79FA681343FB60044AFB681360EB
:100F400000BF1437BD4680BC704700BF00000140A1
:100F500080B483B000AF78600B46FB70FB78002B49
:100F600006D0094A084B1B6843F08003136005E074
:100F7000054A054B1B6823F08003136000BF0C3744
:100F8000BD4680BC704700BF0000014080B487B000
:100F900000AF78600B46FB7000233B610023FB60D1
:100FA00000237B610023BB607B68002B03DA2E4BA0
:100FB000DB697B6102E02C4B5B687B617B681B0C0F
:100FC00003F00F03BB607B689BB23B617B6803F45B
:100FD0004013B3F5401F0AD17B6923F070637B6136
:100FE000214A214B5B6823F07063536021E07B68EA
:100FF00003F48013002B0ED00322BB6802FA03F324
:10100000FB60FB68DB437A6913407B617B6943F0DB
:1010100070637B610DE07B685B0D1B013A6902FA2E
:1010200003F3DB437A6913407B617B6943F07063B0
:101030007B61FB78002B08D07B685B0D1B013A6954
:1010400002FA03F37A6913437B617B68002B03DAAE
:10105000054A7B69D36102E0034A7B69536000BFA4
:101060001C37BD4680BC70470000014080B485B08D
:1010700000AF03460A46FB711346BB710023FB60B9
:10108000BB7903F003039B000F2202FA03F3FB601A
:10109000BB79032B13D82D492C4B9A68FB68DB4393
:1010A00013408B602948294B9A68F979BB7903F082
:1010B00003039B0001FA03F31343836040E0BB7911
:1010C000072B13D82149214BDA68FB68DB43134017
:1010D000CB601E481D4BDA68F979BB7903F0030336
:1010E0009B0001FA03F31343C36029E0BB790B2B88
:1010F00013D81649154B1A69FB68DB4313400B6183
:101100001248124B1A69F979BB7903F003039B006B
:1011100001FA03F31343036112E00C490B4B5A69C4
:10112000FB68DB4313404B610848084B5A69F97967
:10113000BB7903F003039B0001FA03F313434361FC
:1011400000BF1437BD4680BC704700BF000001409F
:1011500080B485B000AF78600023FB60094B5B680A
:10116000FB60FB6823F40003FB60FA687B681343B1
:10117000FB60044AFB68536000BF1437BD4680BC67
:10118000704700BF0000014080B400AF144A144B08
:101190001B6843F0010313601149114B5A68114B4E
:1011A00013404B600E4A0E4B1B6823F0847323F4EC
:1011B000803313600A4A0A4B1B6823F480231360B0
:1011C000074A074B5B6823F00F6323F470235360D7
:1011D000034B4FF41F029A6000BFBD4680BC7047AE
:1011E000001002400000FFE880B483B000AF7860D8
:1011F000084A084B1B6823F4A02313600549054BDC
:101200001A687B6813430B6000BF0C37BD4680BC77
:10121000704700BF0010024080B582B000AF0023CD
:101220003B600023FB7107E0312000F0CBFB03465D
:10123000FB713B6801333B603B684FF6FF729342A2
:1012400002D0FB79002BEFD0312000F0BBFB03462E
:10125000002B01D0012300E0002318460837BD46CB
:1012600080BD00BF80B485B000AF0346FB71002392
:10127000FB600A4B1B68FB60FB6823F0F803FB6014
:10128000FB79DB00FA681343FB60044AFB681360D8
:1012900000BF1437BD4680BC704700BF001002403D
:1012A00080B483B000AF0346FB71FB79002B06D0FE
:1012B000084A084B1B6843F00103136005E0054A28
:1012C000044B1B6823F00103136000BF0C37BD46BD
:1012D00080BC70470010024080B485B000AF7860D9
:1012E00039600023FB600B4B5B68FB60FB6823F0FD
:1012F000036323F45023FB607A683B681343FA6866
:101300001343FB60034AFB68536000BF1437BD46BC
:1013100080BC70470010024080B483B000AF034629
:10132000FB71FB79002B06D0084A084B1B6843F081
:101330008073136005E0054A044B1B6823F080733B
:10134000136000BF0C37BD4680BC704700100240E0
:1013500080B485B000AF78600023FB60094B5B6808
:10136000FB60FB6823F00303FB60FA687B681343B0
:10137000FB60044AFB68536000BF1437BD4680BC65
:10138000704700BF0010024080B400AF044B5B68A0
:10139000DBB203F00C03DBB21846BD4680BC7047DD
:1013A0000010024080B485B000AF78600023FB607D
:1013B000094B5B68FB60FB6823F0F003FB60FA6895
:1013C0007B681343FB60044AFB68536000BF14371B
:1013D000BD4680BC704700BF0010024080B485B09D
:1013E00000AF78600023FB60094B5B68FB60FB6823
:1013F00023F4E063FB60FA687B681343FB60044AF4
:10140000FB68536000BF1437BD4680BC704700BF07
:101410000010024080B485B000AF78600023FB600C
:10142000094B5B68FB60FB6823F46053FB60FA6860
:101430007B681343FB60044AFB68536000BF1437AA
:10144000BD4680BC704700BF0010024080B483B02E
:1014500000AF7860084A084B5B6823F44003536090
:101460000549054B5A687B6813434B6000BF0C3736
:10147000BD4680BC704700BF0010024080B483B0FE
:1014800000AF7860094A094B5B6823F0805323F46E
:10149000404353600549054B5A687B6813434B60D2
:1014A00000BF0C37BD4680BC704700BF0010024033
:1014B00080B483B000AF78600B4A0B4B1B6A23F0FB
:1014C00001031362084A084B1B6A23F004031362EA
:1014D0000549054B1A6A7B6813430B6200BF0C3742
:1014E000BD4680BC704700BF0010024080B483B08E
:1014F00000AF0346FB71FB79002B06D0084A084B6E
:101500005B6A43F00103536205E0054A044B5B6AE2
:1015100023F00103536200BF0C37BD4680BC704707
:101520000010024080B483B000AF7860084A084BD6
:101530001B6A23F4407313620549054B1A6A7B68E2
:1015400013430B6200BF0C37BD4680BC704700BF21
:101550000010024080B483B000AF0346FB71FB79FA
:10156000002B06D0084A084B1B6A43F40043136261
:1015700005E0054A044B1B6A23F40043136200BFD5
:101580000C37BD4680BC70470010024080B489B063
:1015900000AF78600023FB610023BB6100237B6107
:1015A00000233B610023FB60764B5B6803F00C0378
:1015B000FB61FB69042B07D0082B09D0002B40D11D
:1015C0007B68714A1A6040E07B68704A1A603CE0B0
:1015D0006C4B5B6803F47013BB616A4B5B6803F090
:1015E00000637B617B69DA0E13461B019B1A7B61EA
:1015F000BB699A0C7B6913440233BB61614B5B6826
:1016000003F480333B613B69002B06D1BB69604A20
:1016100002FB03F27B681A6017E05A4B5B6803F425
:101620000033002B06D0BB695A4A02FB03F27B68E9
:101630001A600AE0BB69554A02FB03F27B681A6034
:1016400003E07B68504A1A6000BF4E4B5B6803F0B2
:10165000F003FB61FB691B09FB614F4AFB69134403
:101660001B78DBB2FB607B681A68FB68DA407B683A
:101670005A60444B5B6803F4E063FB61FB691B0A3F
:10168000FB61464AFB6913441B78DBB2FB607B6855
:101690005A68FB68DA407B689A603A4B5B6803F4EF
:1016A0006053FB61FB69DB0AFB613C4AFB69134445
:1016B0001B78DBB2FB607B685A68FB68DA407B68AA
:1016C000DA60304B5B6803F080539B0EFB612D4B5F
:1016D0005B6803F440439B0BFA691344FB61FB69AD
:1016E000072B49D801A252F823F000BF0D170008BC
:1016F00019170008251700083717000843170008B6
:101700004F170008611700086D1700087B68DB6839
:101710005A087B681A612FE07B68DB689A087B684F
:101720001A6129E07B68DB681D4AA2FB03239A0843
:101730007B681A6120E07B68DB68DA087B681A61E5
:101740001AE07B68DB685A087B681A6114E07B68E2
:10175000DB68134AA2FB0323DA087B681A610BE0FB
:101760007B68DB68DA087B681A6105E07B68DB6808
:101770001A097B681A6100BF00BF2437BD4680BCD0
:10178000704700BF0010024000127A00001BB70033
:1017900000093D00808D5B00140000202400002023
:1017A000ABAAAAAA80B483B000AF78600B46FB70E6
:1017B000FB78002B06D00949084B5A697B68134314
:1017C0004B6106E00549054B5A697B68DB431340D2
:1017D0004B6100BF0C37BD4680BC70470010024013
:1017E00080B483B000AF78600B46FB70FB78002BB1
:1017F00006D00949084B9A697B6813438B6106E060
:101800000549054B9A697B68DB4313408B6100BF38
:101810000C37BD4680BC70470010024080B483B0D6
:1018200000AF78600B46FB70FB78002B06D00949AF
:10183000084BDA697B681343CB6106E00549054B29
:10184000DA697B68DB431340CB6100BF0C37BD46D0
:1018500080BC70470010024080B483B000AF786055
:101860000B46FB70FB78002B06D00949084BDA6861
:101870007B681343CB6006E00549054BDA687B685B
:10188000DB431340CB6000BF0C37BD4680BC7047C4
:101890000010024080B483B000AF78600B46FB704C
:1018A000FB78002B06D00949084B1A697B68134363
:1018B0000B6106E00549054B1A697B68DB43134061
:1018C0000B6100BF0C37BD4680BC70470010024062
:1018D00080B483B000AF0346FB71FB79002B06D0C8
:1018E000084A084B1B6A43F48033136205E0054A3B
:1018F000044B1B6A23F48033136200BF0C37BD46D0
:1019000080BC70470010024080B483B000AF034633
:10191000FB71FB79002B06D0084A084B1B6843F487
:101920000023136005E0054A044B1B6823F40023E1
:10193000136000BF0C37BD4680BC704700100240EA
:1019400080B485B000AF78600023FB60094B5B6812
:10195000FB60FB6823F0E063FB60FA687B6813437D
:10196000FB60044AFB68536000BF1437BD4680BC6F
:10197000704700BF0010024080B483B000AF034640
:101980000A46FB711346BB71BB79002B08D00C498A
:101990000B4B1B78DAB2FB791343DBB20B7009E017
:1019A0000749074B1B78DAB2FB79DB43DBB2134004
:1019B000DBB20B7000BF0C37BD4680BC704700BF68
:1019C0000910024080B485B000AF0346FB710023CC
:1019D000BB600023FB60FB795B09DBB2BB60BB68CB
:1019E000012B03D1114B1B68FB6009E0BB68022B84
:1019F00003D10E4B1B6AFB6002E00C4B5B6AFB6081
:101A0000FB7903F01F03BB600122BB6802FA03F3FA
:101A10001A46FB681340002B01D0012300E000238D
:101A200018461437BD4680BC704700BF0010024006
:101A300080B400AF044A044B5B6A43F08073536286
:101A400000BFBD4680BC70470010024080B483B028
:101A500000AF0346FB71074B9A68FB791340002BDC
:101A600001D0012300E0002318460C37BD4680BC9E
:101A7000704700BF0010024080B483B000AF03463F
:101A8000FB71044AFB79137000BF0C37BD4680BC64
:101A9000704700BF0A10024080B483B000AF786086
:101AA000084A084B5B6B23F0030353630549054B5E
:101AB0005A6B7B6813434B6300BF0C37BD4680BC39
:101AC000704700BF0010024080B582B000AF786060
:101AD0007B68264A93420AD101214FF48040FFF7E8
:101AE000BBFE00214FF48040FFF7B6FE3AE07B6872
:101AF0001F4A93420AD101214FF40030FFF7CAFE7A
:101B000000214FF40030FFF7C5FE2BE07B68194A37
:101B100093420AD101214FF48020FFF7BBFE002140
:101B20004FF48020FFF7B6FE1CE07B68124A934218
:101B30000AD101214FF40020FFF7ACFE00214FF441
:101B40000020FFF7A7FE0DE07B680C4A934209D105
:101B500001214FF48010FFF79DFE00214FF480100B
:101B6000FFF798FE00BF0837BD4680BD0038014032
:101B70000044004000480040004C0040005000403D
:101B800080B58AB000AF7860396000237B620023A3
:101B90003B620023FB617B689B899BB223F400536B
:101BA0009AB27B689A817B681B8A9BB2FB61FB6956
:101BB00023F44053FB613B68DB881A46FB691343FF
:101BC000FB61FB699AB27B681A827B689B899BB236
:101BD000FB61FB6923F4B05323F00C03FB613B680A
:101BE0009A883B681B8913439AB23B685B8913430D
:101BF0009BB21A46FB691343FB61FB699AB27B688F
:101C00009A817B689B8A9BB2FB61FB6923F44073DA
:101C1000FB613B689B891A46FB691343FB61FB69C7
:101C20009AB27B689A8207F108031846FFF7AEFC68
:101C30007B68144A934202D17B693B6201E03B69B5
:101C40003B623B681B683A6AB2FBF3F37B623B681A
:101C50001A683B6AB3FBF2F102FB01F29B1AFB61CB
:101C60003B681B685A08FB699A4202D87B6A0133B9
:101C70007B627B6A9AB27B681A8100BF2837BD46B7
:101C800080BD00BF0038014080B483B000AF7860F1
:101C90007B684FF416521A607B6800229A807B683A
:101CA0000022DA807B6800221A817B680C225A812C
:101CB0007B6800229A8100BF0C37BD4680BC70470C
:101CC00080B485B000AF786039600023FB607B682A
:101CD0001B8A9BB2FB60FB6823F47063FB603B686C
:101CE0001A883B685B8813439AB23B689B8813430E
:101CF0009AB23B68DB8813439BB21A46FB681343D6
:101D0000FB60FB689AB27B681A8200BF1437BD463D
:101D100080BC704780B483B000AF78607B680022DD
:101D20001A807B6800225A807B6800229A807B6838
:101D30000022DA8000BF0C37BD4680BC704700BF70
:101D400080B483B000AF78600B46FB70FB78002B4B
:101D500008D07B689B899BB243F400539AB27B689E
:101D60009A8107E07B689B899BB223F400539AB267
:101D70007B689A8100BF0C37BD4680BC704700BFAE
:101D800080B483B000AF78600B46FB707B681B8B20
:101D90009BB223F0FF039AB27B681A837B681B8B8C
:101DA0009AB2FB789BB213439AB27B681A8300BF46
:101DB0000C37BD4680BC704780B483B000AF7860FC
:101DC0000B467B807B88C3F308039AB27B689A80BA
:101DD00000BF0C37BD4680BC704700BF80B483B0E5
:101DE00000AF78607B689B889BB2C3F308039BB20B
:101DF00018460C37BD4680BC704700BF80B483B026
:101E000000AF78600B46FB707B681B8A9BB223F0A7
:101E10000F039AB27B681A827B681B8A9AB2FB789E
:101E20009BB213439AB27B681A8200BF0C37BD463F
:101E300080BC704780B483B000AF78600B46FB7005
:101E4000FB78002B08D07B689B899BB243F0020390
:101E50009AB27B689A8107E07B689B899BB223F0EA
:101E600002039AB27B689A8100BF0C37BD4680BCE2
:101E7000704700BF80B483B000AF78600B467B80B2
:101E80007B689B899BB223F400639AB27B689A813A
:101E90007B689B899AB27B8813439AB27B689A814C
:101EA00000BF0C37BD4680BC704700BF80B483B014
:101EB00000AF78600B467B807B681B8A9BB223F067
:101EC00020039AB27B681A827B681B8A9AB27B884D
:101ED00013439AB27B681A8200BF0C37BD4680BCA0
:101EE000704700BF80B483B000AF78600B46FB70D2
:101EF000FB78002B08D07B681B8A9BB243F480439D
:101F00009AB27B681A8207E07B681B8A9BB223F433
:101F100080439AB27B681A8200BF0C37BD4680BCF2
:101F2000704700BF80B483B000AF78600B46FB7091
:101F3000FB78002B08D07B689B8A9BB243F0080398
:101F40009AB27B689A8207E07B689B8A9BB223F0F7
:101F500008039AB27B689A8200BF0C37BD4680BCEA
:101F6000704700BF80B483B000AF78600B46FB7051
:101F70007B681B8B9BB2DBB29AB27B681A837B684F
:101F80001B8B9AB2FB789BB21B029BB213439AB293
:101F90007B681A8300BF0C37BD4680BC704700BF0A
:101FA00080B483B000AF78600B46FB70FB78002BE9
:101FB00008D07B689B8A9BB243F020039AB27B686F
:101FC0009A8207E07B689B8A9BB223F020039AB237
:101FD0007B689A8200BF0C37BD4680BC704700BF4B
:101FE00080B483B000AF78600B46FB70FB78002BA9
:101FF00008D07B689B8A9BB243F010039AB27B683F
:102000009A8207E07B689B8A9BB223F010039AB206
:102010007B689A8200BF0C37BD4680BC704700BF0A
:1020200080B483B000AF78600B467B8013467B7032
:102030007B78002B08D07B689B8A9AB27B881343FD
:102040009AB27B689A820CE07B689B8A9BB21AB238
:10205000B7F90230DB431BB213401BB29AB27B6864
:102060009A8200BF0C37BD4680BC704780B483B0F5
:1020700000AF78600B467B807B689B8A9BB223F025
:1020800004039AB27B689A827B689B8A9AB27B88A7
:1020900013439AB27B689A8200BF0C37BD4680BC5E
:1020A000704700BF80B483B000AF78600B46FB7010
:1020B000FB78002B08D07B689B8A9BB243F002031D
:1020C0009AB27B689A8207E07B689B8A9BB223F076
:1020D00002039AB27B689A8200BF0C37BD4680BC6F
:1020E000704700BF80B483B000AF78600B467B8040
:1020F0007B681B889AB27B8813409BB2002B01D06F
:10210000012300E0002318460C37BD4680BC704711
:1021100080B487B000AF78600B467B8013467B703D
:1021200000233B610023FB6000237B617B687B61B4
:102130007B88DBB25B09DBB2FB607B8803F01F03AB
:102140003B61FB68012B03D17B690C337B6109E0A8
:10215000FB68022B03D17B6910337B6102E07B6952
:1021600014337B617B78002B09D07B697A69116815
:1021700001203A6900FA02F20A431A6009E07B6919
:102180007A69116801203A6900FA02F2D2430A40E2
:102190001A6000BF1C37BD4680BC704780B483B056
:1021A00000AF78600B467B807B88DB439AB27B680C
:1021B0001A8000BF0C37BD4680BC704780B485B024
:1021C00000AF78600B467B800023BB810023FB813E
:1021D00000237B817B88DBB25B09DBB27B817B8860
:1021E00003F01F03FB81FB89012202FA03F3FB8149
:1021F0007B89012B06D17B689B899AB2FB891340AE
:10220000FB810FE07B89022B06D17B681B8A9AB287
:10221000FB891340FB8105E07B689B8A9AB2FB89AE
:102220001340FB817B881B0ABB81BB89012202FA18
:1022300003F3BB817B681B889AB2BB891340BB81C7
:10224000FB89002B04D0BB89002B01D0012300E0C7
:10225000002318461437BD4680BC704780B485B053
:1022600000AF78600B467B800023FB810023BB819D
:102270007B881B0AFB81FB89012202FA03F3BB81E5
:10228000BB89DB439AB27B681A8000BF1437BD4616
:1022900080BC704780B483B000AF78607B689B8956
:1022A0009BB243F001039AB27B689A8100BF0C375E
:1022B000BD4680BC704700BF80B500AF1348FEF735
:1022C0006BF900F0D9F81E211148FEF765F900F00E
:1022D0002DF921210E48FEF75FF900F033F9252191
:1022E0000B48FEF759F90B4B0B4A0C490C4802F00E
:1022F0006DF82C210648FEF74FF9094802F048F81E
:1023000030210348FEF748F900BF80BD2074000863
:102310002874000850000020FC0000202C00002041
:102320005001002080B400AF00BFBD4680BC7047A4
:1023300080B400AFFEE700BF80B400AF00BFBD4671
:1023400080BC704780B400AF00BFBD4680BC704702
:1023500080B582B000AF00F061F878607B681B78D0
:10236000002B04D17B6801331B78002B04D00222A0
:102370007968034803F0DAFA00BF0837BD4680BD2C
:102380005001002080B500AF01F058FF00BF80BDB4
:1023900080B500AF4FF4005000F0D0FF0346002B93
:1023A00011D00A4B5B79002B09D0012003F07AF998
:1023B000064B1A79054BDA70044B00225A714FF420
:1023C000005000F0D5FF00BF80BD00BF50010020CD
:1023D00080B500AF4FF4802000F0CAFF00BF80BD81
:1023E00080B500AF012000F0E7FA0346002B01D1D1
:1023F000032310E0022000F0DFFA0346002B01D196
:10240000022308E0032000F0D7FA0346002B01D195
:10241000012300E00023184680BD00BF80B582B0D4
:1024200000AF0023FB710023BB71FFF7D9FF034608
:10243000022B04D0032B07D0012B0AD00EE0FB792E
:10244000063BDBB2FB7109E0FB790633DBB2FB71C3
:1024500004E0BB790633DBB2BB7100BFFA79054BF0
:102460001A70BA79034B5A70024B18460837BD46AA
:1024700080BD00BF3801002080B584B000AF0021CE
:10248000012000F02BFA0021022000F027FA0021A1
:10249000032000F023FA0121002000F01FFA01219F
:1024A0001020FFF79DF94FF40073BB811023FB73DD
:1024B0000323BB7307F10C0319460E48FEF7A2FB7A
:1024C00001214FF08050FFF7A9F94FF4802000F070
:1024D0004FFF4FF480237B6008237B7200233B7205
:1024E0000123BB723B1D184600F082FE00BF10376F
:1024F000BD4680BD0010014080B582B000AF0346EC
:10250000FB71FB79012B05D14FF400710648FEF7F2
:1025100095FC04E04FF400710348FEF79DFC00BFFA
:102520000837BD4680BD00BF0010014080B500AF38
:102530000020FEF78BFF01214FF40000FFF76EF93A
:1025400000BF80BD80B582B000AF4FF4C06000F026
:102550001DFF14233B7101237B710023BB710123F9
:10256000FB713B1D184600F023FF2A233B7100231B
:102570007B710023BB710123FB713B1D184600F0EA
:1025800017FF00BF0837BD4680BD00BF80B483B0D1
:1025900000AF03463960FB713B6812221A80034B7F
:1025A00018460C37BD4680BC704700BF2C7400082D
:1025B00080B483B000AF03463960FB713B680422EE
:1025C0001A80034B18460C37BD4680BC704700BFCD
:1025D0004074000880B582B000AF03463960FB71DB
:1025E0003A680449044802F0A3FC024B1846083735
:1025F000BD4680BDCC0100204474000880B582B087
:1026000000AF03463960FB713A680449044802F0A0
:102610008FFC024B18460837BD4680BDCC01002018
:102620006074000880B483B000AF03463960FB716A
:102630003B6806221A80034B18460C37BD4680BC07
:10264000704700BF4800002080B582B000AF03464D
:102650003960FB713A680449044802F069FC024B96
:1026600018460837BD4680BDCC01002078740008AC
:1026700080B582B000AF03463960FB713A68044907
:10268000044802F055FC024B18460837BD4680BD91
:10269000CC0100208C74000880B483B000AF0F4BD5
:1026A0001B687B607B68002B12D07B68DAB20C4B16
:1026B0009A707B681B0ADAB2094BDA707B681B0CD4
:1026C000DAB2074B1A717B681B0EDAB2044B5A71EF
:1026D00000BF0C37BD4680BC704700BF00210240E0
:1026E0004800002080B483B000AF03463960FB711E
:1026F00097F90730002B0BDA0D49FB7903F00F0334
:10270000043B3A68D2B21201D2B20B441A7609E005
:10271000084997F907303A68D2B21201D2B20B4495
:1027200083F8002300BF0C37BD4680BC704700BF54
:1027300000ED00E000E100E080B582B000AF78601D
:102740007B68013BB3F1807F01D301230FE00A4A8C
:102750007B68013B53600F214FF0FF30FFF7C2FF52
:10276000054B00229A60044B07221A60002318468A
:102770000837BD4680BD00BF10E000E080B500AF67
:10278000054B1B68054AA2FB03235B091846FFF7AC
:10279000D3FF00BF80BD00BF000000201F85EB51AC
:1027A00080B483B000AF0346FB7100BF0C37BD4659
:1027B00080BC704780B400AF00BFBD4680BC70478E
:1027C00080B400AF00BFBD4680BC704780B400AF8E
:1027D00000BFBD4680BC704780B584B000AF0346E3
:1027E000FB71FB79134A52F8233001211846FEF79A
:1027F000F7FFFB79104A32F81330BB811023FB73CB
:102800000323BB73FB790D4A52F8233007F10C0206
:1028100011461846FEF7F6F9FB79084A52F82330BC
:10282000FA79054931F812205A6100BF1037BD46C8
:1028300080BD00BFA8740008A074000864000020D8
:1028400080B483B000AF0346FB71FB79064A52F8AF
:102850002330FA79054931F812201A6100BF0C378C
:10286000BD4680BC704700BF64000020A074000813
:1028700080B483B000AF0346FB71FB79064A52F87F
:102880002330FA79054931F812205A6100BF0C371C
:10289000BD4680BC704700BF64000020A0740008E3
:1028A00080B483B000AF0346FB71FB79094A52F84C
:1028B0002330FA79074951F82220D268F97906487D
:1028C00030F811104A40DA6000BF0C37BD4680BCBA
:1028D000704700BF64000020A074000880B586B077
:1028E00000AF03460A46FB711346BB71FB792B4AC6
:1028F00052F8233043F0010301211846FEF770FF20
:102900002823FB75FB79264A32F81330BB82FB790A
:10291000244A52F8233007F1140211461846FEF7F4
:1029200071F9BB79012B34D1FB791F4A32F813308E
:10293000D8B2FB791D4A32F81330DBB21946FEF7E4
:1029400095FBFB791A4A32F81330DBB23B72022353
:102950007B720023BB720123FB7207F10803184648
:1029600000F026FDFB79134A32F81330FB60002398
:102970003B740C237B740123BB7407F10C031846D2
:1029800000F036FCFB790B4A32F81330184600F0A1
:10299000EFFC00BF1837BD4680BD00BFC074000803
:1029A000B874000874000020D8740008E0740008AF
:1029B000E8740008D074000880B582B000AF034608
:1029C000FB71FB79074A52F82300FB79064A32F87B
:1029D00013301946FEF7E6F9034618460837BD4698
:1029E00080BD00BF74000020B874000880B584B0BA
:1029F00000AF03463960FB71FB79394A52F8232056
:102A0000FB79384951F82330134343F00103012186
:102A10001846FEF7E5FEFB79002B05D101214FF4A6
:102A20008040FEF7DDFE07E0FB79012B04D1012198
:102A30004FF40030FEF7F2FEFB792B4A32F81330E8
:102A4000BB811823FB730323BB73FB79274A52F81E
:102A5000233007F10C0211461846FEF7D3F8FB7934
:102A6000234A32F81330BB810423FB73FB79214ADC
:102A700052F8233007F10C0211461846FEF7C2F84F
:102A8000FB791D4A52F8233039681846FFF778F869
:102A9000FB79194A52F8233001211846FFF750F903
:102AA000FB79154A52F82330012240F2255118468D
:102AB000FFF72EFBFB79114A32F81330DBB23B7281
:102AC00000237B720123BB720123FB7207F1080311
:102AD000184600F06DFC00BF1037BD4680BD00BF3A
:102AE000F874000800750008087500088C000020C4
:102AF0000C75000894000020840000201075000868
:102B000080B582B000AF002000F0AAFD002000F0E8
:102B1000C5FD00F035FD00214FF48060FEF742FE58
:102B20004FF4F853BB800423FB713B1D1946074843
:102B3000FEF768F80423BB803B1D19460448FEF7E6
:102B400061F800BF0837BD4680BD00BF00100140DE
:102B50000014014080B582B000AF0121B020FEF723
:102B60003FFE4FF4F853BB800323BB711823FB7166
:102B70003B1D19461048FEF745F80423BB803B1D5A
:102B800019460E48FEF73EF84FF40063BB80482319
:102B9000FB713B1D19460A48FEF734F801214FF43A
:102BA0008060FEF7FFFD01210220FEF7FBFD00BF64
:102BB0000837BD4680BD00BF001001400014014031
:102BC000001C014080B58EB000AF786039601A48B3
:102BD00000F08EFA0021194800F012FA184BFB6041
:102BE0007B683B6110237B613B689B08BB610023D2
:102BF000FB6180233B624FF400737B624FF4006300
:102C0000BB620023FB624FF400533B6300237B63F2
:102C100007F10C031946094800F08AF90122022144
:102C2000064800F009FA0121044800F0E9F900BF64
:102C30003837BD4680BD00BF00F00010440402409C
:102C40008080014080B58EB000AF786039601A484E
:102C500000F04EFA0021194800F0D2F9184BFB6041
:102C60007B683B6100237B613B689B08BB61002361
:102C7000FB6180233B624FF400737B624FF400637F
:102C8000BB620023FB624FF400533B6300237B6372
:102C900007F10C031946094800F04AF90122022104
:102CA000064800F0C9F90121044800F0A9F900BF65
:102CB0003837BD4680BD00BF00F00010440402401C
:102CC0008080014080B500AF024800F0EDF9034676
:102CD000184680BD0020001080B582B000AF0021F2
:102CE000164801F0C1F8154800F048FF00214FF4E4
:102CF0008050FEF775FD2023BB800423FB713B1D34
:102D000019460F48FDF77EFF4023BB803B1D194647
:102D10000B48FDF777FF8023BB803B1D1946084811
:102D2000FDF770FF0823BB803B1D19460548FDF7E2
:102D300069FF00BF0837BD4680BD00BF00300140BD
:102D4000000801400018014080B582B000AF0121A9
:102D50004420FEF745FD01214FF48050FEF740FD71
:102D60002023BB800323BB711823FB713B1D194635
:102D70000F48FDF747FF8023BB803B1D19460C48D9
:102D8000FDF740FF4023BB800423FB713B1D194628
:102D90000748FDF737FF0823BB801023FB713B1D5D
:102DA00019460448FDF72EFF00BF0837BD4680BD19
:102DB000000801400018014080B483B000AF786083
:102DC0007B681A684FF6FE7313407A6813607B685D
:102DD00000221A607B6800225A607B6800229A6099
:102DE0007B680022DA607B68434A934206D1434AFB
:102DF000424B5B6843F00F03536077E07B68404AC7
:102E0000934206D13D4A3D4B5B6843F0F00353606B
:102E10006CE07B683B4A934206D1384A374B5B688B
:102E200043F47063536061E07B68374A934206D194
:102E3000324A324B5B6843F47043536056E07B6820
:102E4000324A934206D12D4A2C4B5B6843F47023DF
:102E500053604BE07B682E4A934206D1274A274BAA
:102E60005B6843F47003536040E07B68294A9342F7
:102E700006D1224A214B5B6843F07063536035E012
:102E80007B68254A934206D1244A244B5B6843F071
:102E90000F0353602AE07B68214A934206D11F4A00
:102EA0001E4B5B6843F0F00353601FE07B681D4AD4
:102EB000934206D1194A194B5B6843F4706353601F
:102EC00014E07B68184A934206D1144A134B5B689E
:102ED00043F47043536009E07B68144A934205D180
:102EE0000E4A0E4B5B6843F47023536000BF0C37EF
:102EF000BD4680BC704700BF080002400000024091
:102F00001C000240300002404400024058000240D1
:102F10006C000240800002400804024000040240AD
:102F20001C040240300402404404024058040240A1
:102F300080B485B000AF786039600023FB607B68A7
:102F40001B68FB60FB6823F4FF4323F07003FB6006
:102F50003B689A683B681B6A1A433B681B691A43C3
:102F60003B685B691A433B689B691A433B68DB69B2
:102F70001A433B685B6A1A433B689B6A1343FA68CF
:102F80001343FB607B68FA681A603B68DA687B6809
:102F90005A603B681A687B689A603B685A687B682D
:102FA000DA6000BF1437BD4680BC704780B483B080
:102FB00000AF78607B6800221A607B6800225A604C
:102FC0007B6800229A607B680022DA607B680022BE
:102FD0001A617B6800225A617B6800229A617B68D3
:102FE0000022DA617B6800221A627B6800225A6242
:102FF0007B6800229A6200BF0C37BD4680BC7047D8
:1030000080B483B000AF78600B46FB70FB78002B78
:1030100006D07B681B6843F001027B681A6006E0FB
:103020007B681A684FF6FE7313407A68136000BF1E
:103030000C37BD4680BC704780B485B000AFF860E7
:10304000B9601346FB71FB79002B06D0FB681A6848
:10305000BB681A43FB681A6006E0FB681A68BB6825
:10306000DB431A40FB681A6000BF1437BD4680BCC2
:10307000704700BF80B483B000AF78600B467B80A0
:103080007A887B685A6000BF0C37BD4680BC7047A9
:1030900080B483B000AF78607B685B689BB21846F1
:1030A0000C37BD4680BC704780B485B000AF7860F7
:1030B0000023FB607B6803F08053002B03D00A4B96
:1030C0001B68FB6002E0094B1B68FB60FA687B68C9
:1030D0001340002B01D0012300E0002318461437D1
:1030E000BD4680BC704700BF0004024000000240A3
:1030F00080B483B000AF78607B6803F08053002B0E
:1031000003D0064A7B68536002E0054A7B6853603F
:1031100000BF0C37BD4680BC704700BF00040240B2
:103120000000024080B485B000AF78600023FB60EF
:103130007B6803F08053002B03D00A4B1B68FB60B5
:1031400002E0094B1B68FB60FA687B681340002BA8
:1031500001D0012300E0002318461437BD4680BC8F
:10316000704700BF000402400000024080B483B0FA
:1031700000AF78607B6803F08053002B03D0064AD1
:103180007B68536002E0054A7B68536000BF0C37E0
:10319000BD4680BC704700BF0004024000000240F2
:1031A00080B483B000AF78600F4B00221A600E4BE2
:1031B00000225A600C4B00229A600B4B0022DA600E
:1031C000094B0A4A5A617B6800221A607B68002218
:1031D0001A717B680C225A717B6800229A7100BFB9
:1031E0000C37BD4680BC704700040140FFFF0F0054
:1031F00080B485B000AF78600023FB60344BFB6087
:103200007B689B79002B4FD03149314B1A687B6822
:103210001B68DB4313400B602D492D4B5A687B68BC
:103220001B68DB4313404B607B681B791A46FB68C5
:103230001344FB60FB68FA6811687A6812680A43F5
:103240001A602349224B9A687B681B68DB43134052
:103250008B601F491E4BDA687B681B68DB43134099
:10326000CB607B685B79102B0ED11949184B9A689B
:103270007B681B6813438B601549154BDA687B68C4
:103280001B681343CB601DE0114BFB607B685B79CF
:103290001A46FB681344FB60FB68FA6811687A6899
:1032A00012680A431A600DE07B681B791A46FB68B6
:1032B0001344FB60FB68FA6811687A681268D243AD
:1032C0000A401A6000BF1437BD4680BC704700BF7B
:1032D0000004014080B483B000AF78600549054B1D
:1032E0001A697B6813430B6100BF0C37BD4680BC75
:1032F000704700BF0004014080B483B000AF786025
:10330000064B5A697B681340002B01D0012300E073
:10331000002318460C37BD4680BC704700040140AE
:1033200080B483B000AF7860034A7B68536100BF0C
:103330000C37BD4680BC70470004014080B483B0A8
:1033400000AF7860094B5A697B681340002B07D0A7
:10335000064B1A687B681340002B01D0012300E064
:10336000002318460C37BD4680BC7047000401405E
:1033700080B483B000AF7860034A7B68536100BFBC
:103380000C37BD4680BC70470004014080B483B058
:1033900000AF7860054A7B6843F0BF6343F40033B5
:1033A000D36000BF0C37BD4680BC704700ED00E025
:1033B00080B487B000AF78600023FB6000237B619E
:1033C00000233B617B68DB78002B6DD0414BDB68D1
:1033D00003F4E063B3F5E06F04D100237B610423C1
:1033E0003B612EE03B4BDB6803F4E063B3F5C06F59
:1033F00004D101237B6103233B6122E0354BDB6871
:1034000003F4E063B3F5A06F04D102237B610223D0
:103410003B6116E02F4BDB6803F4E063B3F5806F8C
:1034200004D103237B6101233B610AE0294BDB6864
:1034300003F4E063B3F5407F03D104237B610023F1
:103440003B617B685B781A467B69C3F1040302FA2F
:1034500003F3FB607B689B7819463B69C3F1040367
:103460000F2242FA03F30B401A46FB681343FB603A
:10347000FB681B01FB60184A7B681B78F968C9B2BE
:1034800013440A4683F80023134A7B681B785B09C0
:10349000DBB218467B681B7803F01F03012101FA99
:1034A00003F342F820300FE00B497B681B785B097F
:1034B000DBB218467B681B7803F01F0301229A4099
:1034C00000F1200341F8232000BF1C37BD4680BC1B
:1034D000704700BF00ED00E000E100E080B483B081
:1034E00000AF7860396007493B6823F0604323F000
:1034F0007F037A6813438B6000BF0C37BD4680BCE6
:10350000704700BF00ED00E080B483B000AF034619
:103510000A46FB711346BB71BB79002B06D00949E3
:10352000084B1A69FB7913430B6106E00549054B0B
:103530001A69FB79DB4313400B6100BF0C37BD46B2
:1035400080BC704700ED00E080B483B000AF7860CD
:103550007B68042B06D1094A084B1B6843F004031F
:10356000136005E0054A054B1B6823F00403136054
:1035700000BF0C37BD4680BC704700BF10E000E0C4
:1035800080B400AF0F4B00221A600E4B00225A602D
:103590000C4B00229A600B4B0022DA60094B002290
:1035A0005A62084B00229A62064B0022DA62054BEF
:1035B000054A9A63034B0022DA6300BFBD4680BC14
:1035C000704700BF00800140FF07C00080B485B095
:1035D00000AF78600023FB60124B5B68FB60FB6808
:1035E00023F4FD4323F07F03FB607B681B7D1A46B9
:1035F0007B689B681A437B685B681A437B68DB685F
:103600001A437B681B681A437B681B691343FA687B
:103610001343FB60034AFB68536000BF1437BD4689
:1036200080BC70470080014080B483B000AF7860F8
:103630007B6800221A757B6800221A607B68002272
:103640005A607B6800229A607B680022DA607B689F
:1036500000221A6100BF0C37BD4680BC704700BF16
:1036600080B483B000AF0346FB71FB79002B06D01A
:10367000094A094B5B6843F48073536006E00649CE
:10368000054B5A684FF6FF6313404B6000BF0C3781
:10369000BD4680BC704700BF0080014080B483B04D
:1036A00000AF7860084A084B1B6823F003031360DF
:1036B0000549054B1A687B6813430B6000BF0C3744
:1036C000BD4680BC704700BF0080014080B400AFA1
:1036D000034B1B6803F003031846BD4680BC7047CC
:1036E0000080014080B483B000AF78600B46FB706F
:1036F000FB78002B06D00949084BDA6B7B68134333
:10370000CB6306E00549054BDA6B7B68DB4313406E
:10371000CB6300BF0C37BD4680BC704700800140C2
:1037200080B483B000AF0346FB71FB79002B06D059
:10373000094A094BDB6A43F00803D36206E00649F5
:10374000054BDA6A4FF6F7731340CB6200BF0C37B4
:10375000BD4680BC704700BF0080014080B485B08A
:1037600000AF78600023FB60114A7B681B689360A0
:103770000F4BDB68FB60FB6823F4FF6323F0070358
:10378000FB607B685A687B689B681A437B68DB68D0
:103790001A437B681B691343FA681343FB60044AAE
:1037A000FB68D36000BF1437BD4680BC704700BFC4
:1037B0000080014080B483B000AF78607B68002255
:1037C0001A607B6800225A607B6800229A607B68DE
:1037D0000022DA607B6800221A6100BF0C37BD4608
:1037E00080BC704780B400AF034B1B69DBB2184646
:1037F000BD4680BC704700BF0080014080B485B0EA
:1038000000AF78600023FB607A68054B1344FB60CF
:10381000FB681B6818461437BD4680BC704700BF64
:103820001480014080B485B000AF78600023FB6055
:10383000124A7B681B685362104A7B685B6893621C
:103840000E4BDB6AFB60FB6823F0F703FB607B68D1
:103850009A687B68DB681A437B681B691A437B683C
:103860005B691343FA681343FB60044AFB68D36245
:1038700000BF1437BD4680BC704700BF00800140C8
:1038800080B483B000AF78607B684FF0FF321A607D
:103890007B6800225A607B6800229A607B68002265
:1038A000DA607B6800221A617B6800225A6100BFDF
:1038B0000C37BD4680BC704780B400AF024B1B6B19
:1038C0001846BD4680BC70470080014080B400AF00
:1038D000034BD3F880301846BD4680BC704700BF0C
:1038E0000080014080B483B000AF7860044A7B68F8
:1038F000C2F8803000BF0C37BD4680BC704700BFA7
:103900000080014080B400AF024B9B6C1846BD465E
:1039100080BC70470080014080B483B000AF034694
:10392000FB71FB79002B06D0094A094BDB6A43F493
:103930008073D36206E00649054BDA6A4FF6FF63EF
:103940001340CB6200BF0C37BD4680BC704700BF40
:103950000080014080B483B000AF0346FB71FB7967
:10396000002B06D0094A094BDB6A43F40073D3628B
:1039700006E00649054BDA6A4FF6FF531340CB6267
:1039800000BF0C37BD4680BC704700BF00800140BF
:1039900080B483B000AF78607B68012B06D1094A00
:1039A000084BDB6A43F48063D36206E00549054BAC
:1039B000DA6A4FF6FF331340CB6200BF0C37BD46C7
:1039C00080BC70470080014080B483B000AF0346E4
:1039D000FB71FB79002B06D0094A094BDB6A43F4E3
:1039E0000063D36206E00649054BDA6A4FF2FF73C3
:1039F0001340CB6200BF0C37BD4680BC704700BF90
:103A00000080014080B483B000AF0346FB71FB79B6
:103A1000002B06D0094A094BDB6843F40063D360EE
:103A200006E00649054BDA684FF2FF731340CB609E
:103A300000BF0C37BD4680BC704700BF008001400E
:103A400080B483B000AF0346FB71FB79002B06D036
:103A5000094A094BDB6843F48053D36006E006490A
:103A6000054BDA684EF6FF731340CB6000BF0C378E
:103A7000BD4680BC704700BF0080014080B483B069
:103A800000AF0346FB71FB79012B06D0094A094BB5
:103A9000DB6843F40053D36006E00649054BDA685F
:103AA0004DF6FF731340CB6000BF0C37BD4680BCA2
:103AB000704700BF0080014080B483B000AF034670
:103AC000FB71FB79002B06D0094A094BDB6843F4F4
:103AD0008043D36006E00649054BDA684BF6FF7376
:103AE0001340CB6000BF0C37BD4680BC704700BFA1
:103AF0000080014080B483B000AF7860064B5A6B01
:103B00007B681340002B01D0012300E000231846FE
:103B10000C37BD4680BC70470080014080B483B044
:103B200000AF7860034A7B68936300BF0C37BD46E3
:103B300080BC70470080014080B483B000AF7860E3
:103B4000064B5A6B7B681340002B01D0012300E029
:103B5000002318460C37BD4680BC704700800140EA
:103B600080B483B000AF7860034A7B68936300BF82
:103B70000C37BD4680BC70470080014080B582B0E4
:103B800000AF78607B68174A93420AD101214FF455
:103B90008050FDF761FE00214FF48050FDF75CFE80
:103BA0001CE07B68104A93420AD101214FF4804007
:103BB000FDF770FE00214FF48040FDF76BFE0DE035
:103BC0007B680A4A934209D101214FF40040FDF776
:103BD00061FE00214FF40040FDF75CFE00BF083796
:103BE000BD4680BD0030014000380040003C004030
:103BF00080B485B000AF786039600023FB817B68BA
:103C00001B88FB81FB8903F44153FB813B681A88C5
:103C10003B685B8813439AB23B689B8813439AB214
:103C20003B68DB8813439AB23B681B8913439AB203
:103C30003B685B8913439AB23B689B8913439AB2F2
:103C40003B68DB8913439AB2FB891343FB817B6892
:103C5000FA891A803B681A8A7B681A827B689B8B78
:103C60009BB223F400639AB27B689A8300BF143737
:103C7000BD4680BC704700BF80B58CB000AF786097
:103C800039600023FB840223FB850023BB850023CE
:103C9000BB6200233B627B689B8B9BB223F47B63FC
:103CA00023F00F039AB27B689A837B6802221A84FE
:103CB0003B689B68022B04D10023BB850223FB8554
:103CC0005CE07B68464A934203D14FF40033BB6209
:103CD00002E04FF48023BB6207F10C031846FDF7A6
:103CE00055FCFB683B623B68DB88B3F5007F0FD176
:103CF0003B6A1A0A13469B0013445B001A463B6852
:103D00009B68B2FBF3F39BB205339BB2BB6222E02C
:103D10003B689B88002B0FD13B6A5A0913469B00D6
:103D200013445B001A463B689B68B2FBF3F39BB2FB
:103D300005339BB2BB620EE03B6A9A0913469B00B7
:103D400013445B001A463B689B68B2FBF3F39BB2DB
:103D500005339BB2BB62BB6A224AA2FB0323DB088A
:103D6000BB62BB6A9BB203F00103BB85BB8DBA6A21
:103D7000D31A5B08FB85BB8D1B02BB85FB8D002B1B
:103D800002D0FB8DFF2B03D90223FB850023BB85CB
:103D90003B68DA88BB8D13439AB2FB8D13439AB20A
:103DA0007B681A847B689B8BFB843B681A883B6822
:103DB00059883B6898883B689B8903439BB20B43B7
:103DC0009BB213439AB2FB8C13439BB243F4006340
:103DD000FB847B68FA8C9A8300BF3037BD4680BD78
:103DE00000380040CDCCCCCC80B483B000AF78603C
:103DF0007B6800221A807B6800225A807B68002240
:103E00009A807B680022DA807B6800221A817B68B6
:103E100000225A817B6800229A817B680022DA8125
:103E20007B6807221A8200BF0C37BD4680BC7047F2
:103E300080B483B000AF78607B6800221A807B6812
:103E400000225A807B6800229A807B680022DA80F8
:103E50007B6802229A607B6800229A8100BF0C373F
:103E6000BD4680BC704700BF80B483B000AF7860AF
:103E70000B46FB70FB78002B08D07B681B889BB23D
:103E800043F040039AB27B681A8007E07B681B8886
:103E90009BB223F040039AB27B681A8000BF0C37B4
:103EA000BD4680BC704700BF80B483B000AF78606F
:103EB0000B46FB70FB78002B08D07B689B8B9BB27A
:103EC00043F480639AB27B689A8307E07B689B8B9C
:103ED0009BB223F480639AB27B689A8300BF0C374D
:103EE000BD4680BC704700BF80B485B000AF78602D
:103EF0000B46FB701346BB700023FB81FB781B094C
:103F0000DBB21A4601239340FB81BB78002B08D01B
:103F10007B689B889AB2FB8913439AB27B689A802C
:103F200009E07B689B889AB2FB89DB439BB2134014
:103F30009AB27B689A8000BF1437BD4680BC704738
:103F400080B483B000AF78600B467B8013467B70F3
:103F50007B78002B08D07B689B889AB27B881343C0
:103F60009AB27B689A8009E07B689B889AB27B88CA
:103F7000DB439BB213409AB27B689A8000BF0C3738
:103F8000BD4680BC704700BF80B483B000AF78608E
:103F90000B467B807B687A889A8100BF0C37BD46D0
:103FA00080BC704780B483B000AF78607B689B8929
:103FB0009BB218460C37BD4680BC704780B483B0B6
:103FC00000AF78600B467B807B88002B08D07B6835
:103FD0001B889BB243F480739AB27B681A8007E017
:103FE0007B681B889BB223F480739AB27B681A802B
:103FF00000BF0C37BD4680BC704700BF80B483B0A3
:1040000000AF78600B46FB70FB78002B08D07B6814
:104010009B889BB243F004039AB27B689A8007E0C6
:104020007B689B889BB223F004039AB27B689A80DA
:1040300000BF0C37BD4680BC704700BF80B483B062
:1040400000AF78600B467B807B681B889BB223F4B3
:1040500000639AB27B681A807B681B889AB27B885F
:1040600013439AB27B681A8000BF0C37BD4680BCF0
:10407000704700BF80B483B000AF78607B681B8856
:104080009BB243F480539AB27B681A8000BF0C370E
:10409000BD4680BC704700BF80B483B000AF78607D
:1040A0000B46FB70FB78002B08D07B681B889BB20B
:1040B00043F400539AB27B681A8007E07B681B8840
:1040C0009BB223F400539AB27B681A8000BF0C376E
:1040D000BD4680BC704700BF80B483B000AF78603D
:1040E0000B46FB70FB78012B03D07B681B8B9BB2CC
:1040F00002E07B689B8A9BB218460C37BD4680BCA9
:10410000704700BF80B483B000AF78607B681B8AC3
:104110009BB218460C37BD4680BC704780B483B054
:1041200000AF78600B467B807B88B3F5804F08D169
:104130007B681B889BB243F480439AB27B681A80E9
:1041400007E07B681B889BB223F480439AB27B68AC
:104150001A8000BF0C37BD4680BC704780B483B066
:1041600000AF78600B467B807B681B899AB27B88A6
:1041700013409BB2002B01D0012300E0002318461E
:104180000C37BD4680BC704780B483B000AF786008
:104190000B467B807B88DB439AB27B681A8100BF29
:1041A0000C37BD4680BC704780B485B000AF7860E6
:1041B0000B46FB700023FB810023BB81FB7803F0DF
:1041C0000F03012202FA03F3FB81FB781B09DBB228
:1041D0001A4601239340BB817B681B899AB2FB89F5
:1041E00013409BB2002B09D07B689B889AB2BB8995
:1041F00013409BB2002B01D0012300E0002318469E
:104200001437BD4680BC704780B485B000AF78607D
:104210000B46FB700023FB81FB7803F00F030122A8
:1042200002FA03F3FB81FB89DB439AB27B681A81B4
:1042300000BF1437BD4680BC704700BF80B582B058
:1042400000AF0023FB804E4B1B689BB2FB80FB88BA
:104250009BB21A464B4B1B68134003F40043002BE0
:1042600004D0494B1B685B6848489847FB889BB261
:104270001A46444B1B68134003F48063002B08D09C
:104280003F4B4FF6FF321A603F4B1B681B693F489C
:104290009847FB889BB21A463A4B1B68134003F4BD
:1042A0008043002B08D0364B4BF6FF721A60364B1A
:1042B0001B689B6835489847FB889BB21A46314B70
:1042C0001B68134003F40053002B08D02C4B4DF611
:1042D000FF721A602C4B1B68DB682C489847FB88E0
:1042E0009BB21A46274B1B68134003F48053002BE4
:1042F00008D0234B4EF6FF721A60234B1B681B6AD3
:1043000022489847FB889BB21A461E4B1B681340F5
:1043100003F40063002B08D01B4B1B68DB691B48B0
:104320009847174B4FF2FF721A60FB889BB21A46F0
:10433000144B1B68134003F40073002B08D0104B80
:104340004FF6FF521A60104B1B685B690F48984785
:10435000FB889BB21A460B4B1B68134003F4807317
:10436000002B08D0064B4FF6FF621A60064B1B6805
:104370009B690648984700BF0837BD4680BD00BF0F
:10438000445C00404C010020F4000020500100205B
:1043900080B582B000AF78600120FEF7ADF87B6891
:1043A0000522DA7000BF0837BD4680BD80B582B0F7
:1043B00000AF78600020FEF79FF801F0B5FC7B6845
:1043C0000022DA7000BF0837BD4680BD80B584B0DA
:1043D00000AFF860B9607A603B6046211848FCF78E
:1043E000DBF8F86800F02EF848211548FCF7D4F8FF
:1043F000FB687A681A67FB683A685A67FB68BA68AC
:104400009A67FEF749F9FB6800225A71FB6801229E
:104410001A7056210A48FCF7BFF801F061FC5A21D6
:104420000748FCF7B9F8FB685B6F1B6898475D218C
:104430000348FCF7B1F800BF1037BD4680BD00BF90
:104440001475000880B483B000AF7860002318466C
:104450000C37BD4680BC704780B584B000AF786033
:1044600007F108031946786800F01AFD3B7A03F05B
:104470006003202B0AD0402B0FD0002B14D107F162
:1044800008031946786800F031F912E007F10803D3
:104490001946786800F040F90BE007F10803194667
:1044A000786800F06BF904E00021786802F0AEF95A
:1044B00000BF002318461037BD4680BD80B584B0CC
:1044C00000AF78600B46FB70FA7813465B0013442C
:1044D000DB0040337A681344FB60FB78002B3AD151
:1044E0007B689B78032B28D1FB681A69FB689B6863
:1044F0009A4210D9FB681A69FB689B68D21AFB685C
:104500001A61FB68D968FB681B699BB21A46786818
:1045100002F020FB2FE07B681B6FDB69002B08D0CB
:104520007B68DB78032B04D17B681B6FDB697868C1
:104530009847786802F020FB1DE07B689B78052B8C
:1045400019D10F4A0E4B1B689BB2194648F68F6370
:104550000B4013600FE07B681B6F5B6A002B0AD077
:104560007B68DB78032B06D17B681B6F5B6AFA786C
:10457000114678689847002318461037BD4680BD1D
:10458000005C004080B584B000AF78600B46FB70E3
:10459000FA7813465B001344DB0010337A68134447
:1045A000FB60FB78002B4DD17B689B78022B37D1C9
:1045B000FB681A69FB689B689A4210D9FB681A6904
:1045C000FB689B68D21AFB681A61FB68D968FB68B4
:1045D0001B699BB21A46786802F094FA57E0FB68B0
:1045E0001A69FB689B689A4208D1FB6800221A612D
:1045F00000220021786802F085FA48E07B681B6F92
:104600009B69002B08D07B68DB78032B04D17B6887
:104610001B6F9B6978689847786802F0BFFA36E0AC
:104620007B689B78042B32D11B4B1B78002B2ED040
:10463000194B1B781946786802F0F6F9164B0022E0
:104640001A7024E0FB681A69FB685B69D21AFB6880
:104650001A61FB681B69002B10D17B681B6F1B6AFA
:10466000002B14D07B68DB78032B10D17B681B6F89
:104670001B6AFA7811467868984708E0FB68DA68A0
:10468000FB681B699BB2F978786802F015F8002383
:1046900018461037BD4680BD3A01002080B582B073
:1046A00000AF78600B46FB707B681B6F1B68FA7865
:1046B0001146786898477B685B6F9B689847002332
:1046C00018460837BD4680BD80B582B000AF78601F
:1046D0000B46FB707B681B6F5B68FA781146786845
:1046E0009847002318460837BD4680BD80B582B084
:1046F00000AF786039603B685B781A46054B53F829
:104700002230396878689847002318460837BD4634
:1047100080BD00BF9C00002080B584B000AF7860F1
:1047200039607B68DB78032B1CD13B689B88DBB24C
:10473000012B12D87B681B6FDB6839687868984753
:104740000346FB733B68DB88002B10D1FB7B002BFF
:104750000DD1786802F010FA09E03968786800F045
:10476000D9FB04E03968786800F0D4FB00E000BFB2
:10477000002318461037BD4680BD00BF80B483B00B
:1047800000AF78603960002318460C37BD4680BC06
:10479000704700BF80B483B000AF7860396000BF5D
:1047A0000C37BD4680BC704780B584B000AF7860E0
:1047B00039600023BB8100237B813B681B7803F0B9
:1047C0001F03012B1BD0022B38D0002B76D17B6826
:1047D000DB78023B012B10D87B685B79002B04D07F
:1047E000BB8943F002039BB2BB8107F10C03022299
:1047F0001946786802F070F900E000BF63E07B685A
:10480000DB78022B02D0032B05D016E039687868DC
:1048100000F080FB11E03B689B88DBB2012B07D8DE
:1048200007F10C0302221946786802F055F903E0FB
:104830003968786800F06EFB00BF44E03B689B88F5
:10484000FB737B68DB78022B02D0032B0BD034E0A8
:10485000FB7B002B30D0FB7B802B2DD03968786818
:1048600000F058FB28E097F90F30002B0FDAFB7BA4
:1048700003F07F02796813465B001344DB000B44AE
:1048800010331B78002B0FD001237B810CE0FA7BC7
:10489000796813465B001344DB000B4440331B78FC
:1048A000002B01D001237B8107F10A030222194664
:1048B000786802F011F900E000BF04E03968786818
:1048C00000F028FB00BF00BF1037BD4680BD00BF11
:1048D00080B584B000AF786039600023FB733B681B
:1048E0001B7803F01F03012B20D0022B35D0002BA7
:1048F0005DD17B68DB78023B012B13D83B685B887A
:10490000012B06D17B6800225A71786802F034F9D5
:104910000AE03B685B88022B06D13968786800F0B2
:10492000F9FA01E000BF47E000BF45E07B689B78F3
:10493000022B02D0032B05D00EE03968786800F016
:10494000E9FA09E03B689B88DBB2012B03D939689F
:10495000786800F0DFFA00BF2EE03B689B88FB73AD
:104960007B68DB78022B02D0032B0BD01EE0FB7B95
:10497000002B1AD0FB7B802B17D03968786800F0A9
:10498000C9FA12E03B685B88002B0AD1FB7B002B45
:1049900007D0FB7B802B04D0FB7B1946786801F0A5
:1049A000A9FF786802F0E8F800E000BF04E0396889
:1049B000786800F0AFFA00BF00BF1037BD4680BD79
:1049C00080B584B000AF786039600023FB733B682A
:1049D0001B7803F01F03012B17D0022B2CD0002BC8
:1049E00051D17B68DB78023B012B0AD83B685B889E
:1049F000012B08D17B6801225A71786802F0BCF85B
:104A000001E000BF44E000BF42E07B689B78022BDE
:104A100002D0032B05D00EE03968786800F07AFAEE
:104A200009E03B689B88DBB2012B03D939687868C1
:104A300000F070FA00BF2BE07B68DB78022B02D01D
:104A4000032B0BD01EE0FB7B002B1AD0FB7B802BB3
:104A500017D03968786800F05DFA12E03B685B882F
:104A6000002B0AD1FB7B002B07D0FB7B802B04D0D3
:104A7000FB7B1946786801F0C9FE786802F07CF883
:104A800000E000BF04E03968786800F043FA00BF36
:104A900000BF1037BD4680BD80B582B000AF7860E2
:104AA00039603B689B88002B23D13B68DB88002B57
:104AB0001FD13B685B88DBB203F07F03DAB2114B96
:104AC0001A707B68DB78032B04D13968786800F0B2
:104AD00021FA12E0786802F04FF80A4B1B78002B9D
:104AE00003D07B680222DA7007E07B680122DA706B
:104AF00003E03968786800F00DFA00BF0837BD465A
:104B000080BD00BF3A01002080B584B000AF78605E
:104B100039603B681B7803F01F03002B40F0B9801D
:104B20003B685B881B0A9BB2013B062B00F294801A
:104B300001A252F823F000BF554B0008774B000844
:104B40008D4B0008594C0008594C0008454C000892
:104B50004F4C00087B689B6F1B687A68127807F1DE
:104B60000A0110469847F8603B68DB88402B79D1F2
:104B700008237B8176E07B681B6FDB6A7A6812789A
:104B800007F10A0110469847F8606CE03B685B88C3
:104B9000DBB2052B50D801A252F823F0B54B000828
:104BA000CB4B0008E14B0008F74B00080D4C000808
:104BB000234C00087B689B6F5B687A68127807F16A
:104BC0000A0110469847F8603BE07B689B6F9B6842
:104BD0007A68127807F10A0110469847F86030E0C9
:104BE0007B689B6FDB687A68127807F10A011046D0
:104BF0009847F86025E07B689B6F1B697A6812789C
:104C000007F10A0110469847F8601AE07B689B6F2D
:104C10005B697A68127807F10A0110469847F860D4
:104C20000FE07B689B6F9B697A68127807F10A0135
:104C300010469847F86004E03968786800F06AF92F
:104C400033E010E03968786800F064F92DE03968E5
:104C5000786800F05FF928E03968786800F05AF960
:104C600000BF22E000BF7B89002B1ED03B68DB88A1
:104C7000002B1AD03B68DA887B89934228BF134601
:104C80009BB27B817B891A46F968786801F024FF22
:104C90000BE03B681B7803F01F03012B05D17B68F9
:104CA0001B6F9B683968786898471037BD4680BD90
:104CB00080B483B000AF7860396000BF0C37BD4668
:104CC00080BC704780B584B000AF78603960002345
:104CD000FB603B68DB88012B04D03968786800F002
:104CE00019F916E07B68DB78022B02D0032B08D081
:104CF0000FE007F10C0301221946786801F0ECFE81
:104D000007E07B68013301221946786801F0E4FE70
:104D100000BF00BF1037BD4680BD00BF80B582B068
:104D200000AF786039603B685B88DAB2304B1A704C
:104D30002F4B1B78012B04D93968786800F0EAF80A
:104D400052E07B68DB78022B02D0032B19D04BE0BA
:104D5000274B1B78002B10D0254B1A787B685A7094
:104D60007B680322DA70224B1B7819467868FFF7BC
:104D700095FC786801F000FF36E0786801F0FCFEF1
:104D800032E01B4B1B78002B10D17B680222DA70BB
:104D9000174B1A787B685A70154B1B781946786840
:104DA000FFF792FC786801F0E7FE1CE07B685A7818
:104DB0000F4B1B789A4213D07B685B781946786852
:104DC000FFF782FC0A4B1A787B685A70084B1B78F5
:104DD00019467868FFF762FC786801F0CDFE02E0C2
:104DE000786801F0C9FE00BF00BF0837BD4680BD2E
:104DF0003B01002080B582B000AF786039607B68ED
:104E0000DB78022B02D0032B05D015E039687868D7
:104E100000F080F810E03B689B88DBB2012B06D8DD
:104E20007B681B6F1B6939687868984703E03968AD
:104E3000786800F06FF800BF00BF0837BD4680BD3E
:104E400080B582B000AF786039607B68DB78022B78
:104E500002D0032B05D015E03968786800F05AF8C5
:104E600010E03B689B88DBB2012B06D87B681B6F88
:104E70005B6939687868984703E03968786800F0BA
:104E800049F800BF00BF0837BD4680BD80B483B07D
:104E900000AF7860396000BF0C37BD4680BC7047FA
:104EA00080B483B000AF786039607B689A793B68E2
:104EB0001A707B68DA793B685A707B681B7A9AB201
:104EC0007B685B7A9BB21B029BB213449AB23B682D
:104ED0005A807B689B7A9AB27B68DB7A9BB21B0212
:104EE0009BB213449AB23B689A807B681B7B9AB250
:104EF0007B685B7B9BB21B029BB213449AB23B68FC
:104F0000DA807B6801229A7000BF0C37BD4680BCF6
:104F1000704700BF80B582B000AF78603960002173
:104F2000786801F073FC00BF0837BD4680BD00BF44
:104F300080B487B000AFF860B9607A600123FB7578
:104F4000FB68002B28D0FB7D5A1CFA751A46BB68FB
:104F5000134403221A7012E0FB7D5A1CFA751A469C
:104F6000BB681A44FB68591CF9601B781370FB7D01
:104F70005A1CFA751A46BB68134400221A70FB6863
:104F80001B78002BE8D1FB7D9AB27B681A807B6886
:104F90001B88DAB2BB681A7000BF1C37BD4680BCE4
:104FA000704700BF80B586B000AF786000237B619A
:104FB0000023FB7400237B8100233B81D3E07B89AA
:104FC0009BB2DBB203F00F03FB74FB7C9B0003F18D
:104FD000804303F5B8431B689BB23B817B899BB23E
:104FE00003F01003002B3FD1FA7C13465B001344FF
:104FF000DB0010337A6813447B613B899BB203F07A
:105000008003002B00F0AF80FB7C9B0003F180430A
:1050100003F5B843FA7C920002F1804202F5B842EF
:10502000126892B2114648F60F720A401A60554B48
:105030001B689BB21A46FB7CDB001A44524B13449C
:105040005B001B689BB2C3F309027B695A617B69F1
:10505000DA687B695B691A447B69DA60FB7C194614
:105060007868FFF78FFA7EE00023FB60FA7C134636
:105070005B001344DB0040337A6813447B613B8957
:105080009BB21BB2002B6EDAFB7C9B0003F18043CA
:1050900003F5B843FA7C920002F1804202F5B8426F
:1050A000126892B2114640F68F720A401A60354B70
:1050B0001B689BB21A46FB7CDB001A44334B13443B
:1050C0005B001B689BB2C3F30903FB60FB68002B0A
:1050D0001CD03B899BB203F40063002B0DD07B688E
:1050E000981D7B695B88FA6892B2194600F0CAFD88
:1050F0007868FFF7B1F900233FE07B69D8687B69E6
:105100005B88FA6892B2194600F0BCFD7B695A6967
:10511000FB681A447B695A617B69DA68FB681A4448
:105120007B69DA607B691A69FB68D21A7B691A614C
:105130007B691B69002B04D07B699A68FB689A42E3
:1051400008D9FB7C19467868FFF7B8F97B6900221B
:105150005A6108E07B69DA687B691B699BB2F97C5C
:10516000786801F0B9F90A4B1B689BB21A467A813C
:105170001BB2002BFFF623AF002318461837BD469D
:1051800080BD00BF505C004002300020063000208F
:10519000445C004090B589B000AF786000237B612B
:1051A0000023FB7400233B820023FB8163E13B8AE5
:1051B0009BB2DBB203F00F03FB74FB7C9B0003F19B
:1051C000804303F5B8431B689BB2FB813B8A9BB2CB
:1051D00003F01003002B40F0AC80FA7C13465B0018
:1051E0001344DB0010337A6813447B61FB899BB264
:1051F00003F08003002B00F03E810023FB8300239B
:10520000BB83FB7C9B0003F1804303F5B843FA7C2E
:10521000920002F1804202F5B842126892B2114641
:1052200048F60F720A401A60FB899BB203F04003F4
:10523000002B13D0974B1B689BB21A46FB7CDB00FC
:105240001A44954B13445B001B689BB2C3F30902DD
:105250007B695A617B69DB88BB8312E08D4B1B68DD
:105260009BB21A46FB7CDB001A448C4B13445B0058
:105270001B689BB2C3F309027B695A617B699B88F7
:10528000BB837B69DA687B695B691A447B69DA6096
:105290007B691A697B695B69D21A7B691A617B69D0
:1052A0001A697B699B689A4203D97B699B68FB8377
:1052B0000CE07B691B69002B08D07B691A697B694C
:1052C0009B689A4202D87B691B69FB83FB8B002B8E
:1052D0000BD07B69DB68FA8BB98B184600F098FC21
:1052E000FB7C0021184600F055FC7B691B69002BF4
:1052F00040F0C180FB7C9B0003F1804303F5B84381
:105300001B689BB223F4E04323F040039CB2FB7C78
:105310009B0003F1804303F5B84384F0200292B26E
:105320001A607B681B6F1B6AFA7C11465C489847C1
:10533000A1E0FA7C13465B001344DB004033584A7B
:1053400013447B61FB899BB21BB2002B80F29380DC
:105350000023BB61FB7C9B0003F1804303F5B84352
:10536000FA7C920002F1804202F5B842126892B2D1
:10537000114640F68F720A401A60FB899BB203F413
:105380008043002B1BD0434B1B689BB21A46FB7C0F
:10539000DB001A44404B13445B001B689BB2C3F311
:1053A0000903BB61BB69002B24D07B69D8687B698A
:1053B0009B88BA6992B2194600F064FC1AE0354B3A
:1053C0001B689BB21A46FB7CDB001A44334B134428
:1053D0005B001B689BB2C3F30903BB61BB69002B75
:1053E00008D07B69D8687B69DB88BA6992B21946B4
:1053F00000F048FCFB7C0121184600F0CBFB7B69E8
:10540000DA68BB691A447B69DA607B695A69BB69EF
:105410001A447B695A617B691A69BB69D21A7B6934
:105420001A617B691B69002B04D07B699A68BB6990
:105430009A4220D9FB7C9B0003F1804303F5B843DB
:105440001B689BB223F4804323F070039CB2FB7C67
:105450009B0003F1804303F5B84384F4005292B2F9
:105460001A607B681B6F5B6AFA7C11460C48984790
:105470007B6900225A610B4B1B689BB21A463A8229
:105480001BB2002BFFF693AE002318462437BD460F
:1054900090BD00BF505C004002300020063000206C
:1054A00050010020445C004080B483B000AF7860BD
:1054B000002318460C37BD4680BC704780B483B0CB
:1054C00000AF7860002318460C37BD4680BC70479B
:1054D00080B582B000AF78607B681B6F9B6A002B41
:1054E00004D07B681B6F9B6A786898470023184636
:1054F0000837BD4680BD00BF80B582B000AF786080
:10550000052000F0CFF8002318460837BD4680BDBF
:1055100080B582B000AF7860202300220021786837
:1055200000F016FC602300228021786800F010FC57
:10553000402300220021786800F08AFC40230022EA
:105540008021786800F084FC7B685B6F5B687A6818
:105550001278104698470021786801F065FA7B6858
:105560000122DA70002318460837BD4680BD00BF0F
:1055700080B582B000AF78607B68DA787B681A719A
:105580007B680422DA707B685B6FDB689847084BA6
:105590001B78DBB2002B02D000F05CF802E00220A6
:1055A00000F080F8002318460837BD4680BD00BFD4
:1055B000F900002080B582B000AF78607B685B6F37
:1055C0001B6998477B681A797B68DA70002000F0C5
:1055D00069F8002318460837BD4680BD80B500AF86
:1055E000084A084B1B689BB223F00403136000F0C9
:1055F0000BF8044A034B1B689BB223F008031360AB
:1056000000BF80BD405C004080B500AF4FF48030EB
:10561000FBF7EAFD00BF3120FCF7D4F90346002B6D
:10562000F9D00120FBF778FE00BF3920FCF7CAF95A
:105630000346002BF9D00220FBF78AFE00BFFBF7E0
:10564000A3FE0346082BFAD100210220FDF75CFFE0
:1056500000BF80BD80B500AF104A104B1B689BB2E5
:1056600043F00C039BB213600D4B1B689BB203F419
:105670008053002B04D10121012000F00BFA0AE035
:10568000074B4EF6FF721A60044A044B1B689BB22C
:1056900023F00803136000BF80BD00BF405C0040E2
:1056A000445C004080B582B000AF0346FB71FB79DB
:1056B000052B02D02B4AFB7913702A4B1B78DBB2E7
:1056C000032B48D801A252F823F000BFDD56000892
:1056D000FB5600080557000823570008224B1B788B
:1056E000DBB2002B05D1FFF779FF1E4B04221A70A5
:1056F00034E01C4B03221A7030E0FFF76FFF1A4BA7
:1057000001221A70194B0F221A70194A184B1B6884
:105710009BB243F010039BB21360124B03221A702A
:105720001CE0124B1B78DBB2013BDAB20F4B1A7054
:105730000E4B1B78DBB2002B0FD10D4A0C4B1B68B4
:105740009BB223F010031360064B04221A70064B21
:1057500000221A7001E000BF00E000BF00BF083760
:10576000BD4680BDF80000203D0100203C01002026
:10577000405C004080B582B000AF78600B46FB70A3
:10578000A02300228121786800F0E2FA022303229C
:105790008121786800F05CFB0223032201217868F4
:1057A00000F056FB002318460837BD4680BD00BFF9
:1057B00080B582B000AF78600B46FB7081217868BD
:1057C00000F058FD0121786800F054FD00231846D0
:1057D0000837BD4680BD00BF80B582B000AF78609D
:1057E00039603B685B78013B0A2B35D801A252F83F
:1057F00023F000BF65580008215800082D58000804
:1058000059580008595800085958000859580008B4
:105810005958000865580008395800084B580008C6
:1058200001221349786801F057F91CE0012211495F
:10583000786801F051F916E03B685B881B0A9BB25F
:10584000DBB21A460A4B1A600DE03B685B88DBB29C
:105850001A46084B1A6006E039687868FFF75AFB69
:10586000022301E000BF002318460837BD4680BD73
:10587000480100204401002080B584B000AF78606A
:1058800039600023FB810023BB603B685B881B0AF7
:105890009BB2212B0BD0222B00D011E03B68DB8880
:1058A000152B28BF1523FB810B4BBB6008E03B6821
:1058B000DB88092B28BF0923FB81084BBB6000BF95
:1058C000FB891A46B968786801F006F90023184682
:1058D0001037BD4680BD00BF48750008367500080A
:1058E00080B582B000AF78603960012204497868E1
:1058F00001F0F2F8002318460837BD4680BD00BF0E
:105900004001002080B483B000AF786039603B680C
:105910005B88DBB21A46044B1A60002318460C372A
:10592000BD4680BC704700BF4001002080B584B0F8
:1059300000AFF860B9601346FB80FB68DB78032B8F
:1059400005D1FB88BA688121F86800F0B5FE002314
:1059500018461037BD4680BD80B483B000AF034603
:105960003960FB713B6822221A80034B18460C37C2
:10597000BD4680BC704700BF2475000880B500AFED
:1059800001214FF08050FBF785FF00214FF0805040
:10599000FBF780FF00BF80BD80B483B000AF03463B
:1059A000FB71FB79002B06D0084A084B1B6843F4B7
:1059B0008073136005E0054A044B1B6823F4807371
:1059C000136000BF0C37BD4680BC704700700040BC
:1059D00080B485B000AF78600B46FB700023FB609D
:1059E000114B1B68FB60FB6823F0E003FB60FA6867
:1059F0007B681343FB600C4AFB681360FB78002B49
:105A000006D0094A084B1B6843F01003136005E0F9
:105A1000054A054B1B6823F01003136000BF1437C1
:105A2000BD4680BC704700BF0070004080B483B0AA
:105A300000AF0346FB71FB79002B06D0084A084BE8
:105A40005B6843F48073536005E0054A044B5B6870
:105A500023F48073536000BF0C37BD4680BC704791
:105A60000070004080B483B000AF0346FB71084A69
:105A7000074B1B6923F004031361FB79012B01D150
:105A800030BF00E020BF00BF0C37BD4680BC704770
:105A900000ED00E080B485B000AF78600B46FB708D
:105AA0000023FB60134B1B68FB60FB6823F00303C0
:105AB000FB60FA687B681343FB600E4AFB68136067
:105AC0000D4A0D4B1B6943F004031361FB78012B56
:105AD00001D130BF02E040BF20BF20BF064A064BC5
